{"contracts/Escrow.sol":{"RentalEscrow":{"abi":[{"anonymous":false,"inputs":[{"indexed":false,"internalType":"uint256","name":"propertyId","type":"uint256"}],"name":"PropertyTerminated","type":"event"},{"anonymous":false,"inputs":[{"indexed":false,"internalType":"uint256","name":"propertyId","type":"uint256"},{"indexed":false,"internalType":"uint256","name":"amount","type":"uint256"}],"name":"RentPaid","type":"event"},{"inputs":[{"internalType":"bytes","name":"","type":"bytes"}],"name":"checkUpkeep","outputs":[{"internalType":"bool","name":"upkeepNeeded","type":"bool"},{"internalType":"bytes","name":"","type":"bytes"}],"stateMutability":"view","type":"function"},{"inputs":[{"internalType":"address payable","name":"_tenant","type":"address"},{"internalType":"uint256","name":"_rentAmount","type":"uint256"},{"internalType":"uint256","name":"_startDate","type":"uint256"},{"internalType":"uint256","name":"_endDate","type":"uint256"}],"name":"listProperty","outputs":[],"stateMutability":"nonpayable","type":"function"},{"inputs":[],"name":"nextPropertyId","outputs":[{"internalType":"uint256","name":"","type":"uint256"}],"stateMutability":"view","type":"function"},{"inputs":[{"internalType":"uint256","name":"_propertyId","type":"uint256"}],"name":"payRent","outputs":[],"stateMutability":"payable","type":"function"},{"inputs":[{"internalType":"bytes","name":"performData","type":"bytes"}],"name":"performUpkeep","outputs":[],"stateMutability":"nonpayable","type":"function"},{"inputs":[{"internalType":"uint256","name":"","type":"uint256"}],"name":"properties","outputs":[{"internalType":"address payable","name":"landlord","type":"address"},{"internalType":"address payable","name":"tenant","type":"address"},{"internalType":"uint256","name":"rentAmount","type":"uint256"},{"internalType":"uint256","name":"startDate","type":"uint256"},{"internalType":"uint256","name":"endDate","type":"uint256"},{"internalType":"uint256","name":"lastPaymentDate","type":"uint256"},{"internalType":"bool","name":"isActive","type":"bool"}],"stateMutability":"view","type":"function"},{"inputs":[{"internalType":"uint256","name":"_propertyId","type":"uint256"}],"name":"terminateRental","outputs":[],"stateMutability":"nonpayable","type":"function"}],"evm":{"bytecode":{"linkReferences":{},"object":"6080806040523461001657610617908161001c8239f35b600080fdfe608060408181526004908136101561001657600080fd5b600092833560e01c90816339500f341461035f575080634585e33b146103355780634fcb22fc1461022b5780636e04ff0d146101bf578063d9e8843f146101a0578063f7b108081461012a5763f92174191461007157600080fd5b3461012657602036600319011261012657813591828452836020528184209060018060a01b03808354163314908115610116575b50156100e45750600601805460ff19169055519081527ff74cb909c29f6a49bc57332a246f98b2d1c71dd76e9e4cf99b5606c75e0e2ed690602090a180f35b606490602084519162461bcd60e51b8352820152600c60248201526b155b985d5d1a1bdc9a5e995960a21b6044820152fd5b90506001830154163314386100a5565b8280fd5b509034610126576020366003190112610126578160e09382358152806020522060018060a01b039283825416936001830154169260028301546003840154918401549260ff600660058701549601541695815197885260208801528601526060850152608084015260a0830152151560c0820152f35b505060203660031901126101bb576101b890356103ef565b80f35b5080fd5b8382346101bb576101cf3661037b565b50506101d9610517565b918051938492151583526020828185015284518093850152815b83811061021457505060608094508284010152601f80199101168101030190f35b8086018201518782016060015286945081016101f3565b508290346101bb5760803660031901126101bb576001600160a01b0383358181169490859003610331576044359083519260e084019684881067ffffffffffffffff89111761031e578596976006965233855260208501908152868501602435815260608601918583526080870193606435855260a088019687528060c089019a60018c526001548d528c6020528c20985116906bffffffffffffffffffffffff60a01b91828a541617895560018901925116908254161790555160028601555160038501555190830155516005820155019051151560ff801983541691161790556103186001546103ca565b60015580f35b634e487b7160e01b875260418352602487fd5b8380fd5b833461035c5760206103463661037b565b90809291810103126101bb576101b890356103ef565b80fd5b8490346101bb57816003193601126101bb576020906001548152f35b9060206003198301126103c55760043567ffffffffffffffff928382116103c557806023830112156103c55781600401359384116103c557602484830101116103c5576024019190565b600080fd5b60001981146103d95760010190565b634e487b7160e01b600052601160045260246000fd5b906000918083528260205260409081842060ff600682015416156104e157600281015434036104a5578480808060018060a01b038554168190341561049b575b3491f1156104915760050180549062278d00820180921161047d577fa0d112ed080c1b1a94b838ad981a23746be2a4670fd4bf157224e72cdd5dfdde949550558151908152346020820152a1565b634e487b7160e01b86526011600452602486fd5b82513d86823e3d90fd5b6108fc915061042f565b825162461bcd60e51b8152602060048201526015602482015274125b98dbdc9c9958dd081c995b9d08185b5bdd5b9d605a1b6044820152606490fd5b825162461bcd60e51b815260206004820152600f60248201526e52656e74616c20696e61637469766560881b6044820152606490fd5b60009060018054925b838110610567575050604051600092506020810167ffffffffffffffff811182821017610551576040526000815290565b634e487b7160e01b600052604160045260246000fd5b806000526020600081526040908160002060ff60068201541690816105c5575b5061059c575050610597906103ca565b610520565b908092955051948186015284528084019084821067ffffffffffffffff83111761055157529190565b60059150015462278d0081018091116103d9574210153861058756fea2646970667358221220cb597a5c12bc0562e202a9c07806af10711bec8d6203e4db653a53e16b80cf4b64736f6c63430008130033","opcodes":"PUSH1 0x80 DUP1 PUSH1 0x40 MSTORE CALLVALUE PUSH2 0x16 JUMPI PUSH2 0x617 SWAP1 DUP2 PUSH2 0x1C DUP3 CODECOPY RETURN JUMPDEST PUSH1 0x0 DUP1 REVERT INVALID PUSH1 0x80 PUSH1 0x40 DUP2 DUP2 MSTORE PUSH1 0x4 SWAP1 DUP2 CALLDATASIZE LT ISZERO PUSH2 0x16 JUMPI PUSH1 0x0 DUP1 REVERT JUMPDEST PUSH1 0x0 SWAP3 DUP4 CALLDATALOAD PUSH1 0xE0 SHR SWAP1 DUP2 PUSH4 0x39500F34 EQ PUSH2 0x35F JUMPI POP DUP1 PUSH4 0x4585E33B EQ PUSH2 0x335 JUMPI DUP1 PUSH4 0x4FCB22FC EQ PUSH2 0x22B JUMPI DUP1 PUSH4 0x6E04FF0D EQ PUSH2 0x1BF JUMPI DUP1 PUSH4 0xD9E8843F EQ PUSH2 0x1A0 JUMPI DUP1 PUSH4 0xF7B10808 EQ PUSH2 0x12A JUMPI PUSH4 0xF9217419 EQ PUSH2 0x71 JUMPI PUSH1 0x0 DUP1 REVERT JUMPDEST CALLVALUE PUSH2 0x126 JUMPI PUSH1 0x20 CALLDATASIZE PUSH1 0x3 NOT ADD SLT PUSH2 0x126 JUMPI DUP2 CALLDATALOAD SWAP2 DUP3 DUP5 MSTORE DUP4 PUSH1 0x20 MSTORE DUP2 DUP5 KECCAK256 SWAP1 PUSH1 0x1 DUP1 PUSH1 0xA0 SHL SUB DUP1 DUP4 SLOAD AND CALLER EQ SWAP1 DUP2 ISZERO PUSH2 0x116 JUMPI JUMPDEST POP ISZERO PUSH2 0xE4 JUMPI POP PUSH1 0x6 ADD DUP1 SLOAD PUSH1 0xFF NOT AND SWAP1 SSTORE MLOAD SWAP1 DUP2 MSTORE PUSH32 0xF74CB909C29F6A49BC57332A246F98B2D1C71DD76E9E4CF99B5606C75E0E2ED6 SWAP1 PUSH1 0x20 SWAP1 LOG1 DUP1 RETURN JUMPDEST PUSH1 0x64 SWAP1 PUSH1 0x20 DUP5 MLOAD SWAP2 PUSH3 0x461BCD PUSH1 0xE5 SHL DUP4 MSTORE DUP3 ADD MSTORE PUSH1 0xC PUSH1 0x24 DUP3 ADD MSTORE PUSH12 0x155B985D5D1A1BDC9A5E9959 PUSH1 0xA2 SHL PUSH1 0x44 DUP3 ADD MSTORE REVERT JUMPDEST SWAP1 POP PUSH1 0x1 DUP4 ADD SLOAD AND CALLER EQ CODESIZE PUSH2 0xA5 JUMP JUMPDEST DUP3 DUP1 REVERT JUMPDEST POP SWAP1 CALLVALUE PUSH2 0x126 JUMPI PUSH1 0x20 CALLDATASIZE PUSH1 0x3 NOT ADD SLT PUSH2 0x126 JUMPI DUP2 PUSH1 0xE0 SWAP4 DUP3 CALLDATALOAD DUP2 MSTORE DUP1 PUSH1 0x20 MSTORE KECCAK256 PUSH1 0x1 DUP1 PUSH1 0xA0 SHL SUB SWAP3 DUP4 DUP3 SLOAD AND SWAP4 PUSH1 0x1 DUP4 ADD SLOAD AND SWAP3 PUSH1 0x2 DUP4 ADD SLOAD PUSH1 0x3 DUP5 ADD SLOAD SWAP2 DUP5 ADD SLOAD SWAP3 PUSH1 0xFF PUSH1 0x6 PUSH1 0x5 DUP8 ADD SLOAD SWAP7 ADD SLOAD AND SWAP6 DUP2 MLOAD SWAP8 DUP9 MSTORE PUSH1 0x20 DUP9 ADD MSTORE DUP7 ADD MSTORE PUSH1 0x60 DUP6 ADD MSTORE PUSH1 0x80 DUP5 ADD MSTORE PUSH1 0xA0 DUP4 ADD MSTORE ISZERO ISZERO PUSH1 0xC0 DUP3 ADD MSTORE RETURN JUMPDEST POP POP PUSH1 0x20 CALLDATASIZE PUSH1 0x3 NOT ADD SLT PUSH2 0x1BB JUMPI PUSH2 0x1B8 SWAP1 CALLDATALOAD PUSH2 0x3EF JUMP JUMPDEST DUP1 RETURN JUMPDEST POP DUP1 REVERT JUMPDEST DUP4 DUP3 CALLVALUE PUSH2 0x1BB JUMPI PUSH2 0x1CF CALLDATASIZE PUSH2 0x37B JUMP JUMPDEST POP POP PUSH2 0x1D9 PUSH2 0x517 JUMP JUMPDEST SWAP2 DUP1 MLOAD SWAP4 DUP5 SWAP3 ISZERO ISZERO DUP4 MSTORE PUSH1 0x20 DUP3 DUP2 DUP6 ADD MSTORE DUP5 MLOAD DUP1 SWAP4 DUP6 ADD MSTORE DUP2 JUMPDEST DUP4 DUP2 LT PUSH2 0x214 JUMPI POP POP PUSH1 0x60 DUP1 SWAP5 POP DUP3 DUP5 ADD ADD MSTORE PUSH1 0x1F DUP1 NOT SWAP2 ADD AND DUP2 ADD SUB ADD SWAP1 RETURN JUMPDEST DUP1 DUP7 ADD DUP3 ADD MLOAD DUP8 DUP3 ADD PUSH1 0x60 ADD MSTORE DUP7 SWAP5 POP DUP2 ADD PUSH2 0x1F3 JUMP JUMPDEST POP DUP3 SWAP1 CALLVALUE PUSH2 0x1BB JUMPI PUSH1 0x80 CALLDATASIZE PUSH1 0x3 NOT ADD SLT PUSH2 0x1BB JUMPI PUSH1 0x1 PUSH1 0x1 PUSH1 0xA0 SHL SUB DUP4 CALLDATALOAD DUP2 DUP2 AND SWAP5 SWAP1 DUP6 SWAP1 SUB PUSH2 0x331 JUMPI PUSH1 0x44 CALLDATALOAD SWAP1 DUP4 MLOAD SWAP3 PUSH1 0xE0 DUP5 ADD SWAP7 DUP5 DUP9 LT PUSH8 0xFFFFFFFFFFFFFFFF DUP10 GT OR PUSH2 0x31E JUMPI DUP6 SWAP7 SWAP8 PUSH1 0x6 SWAP7 MSTORE CALLER DUP6 MSTORE PUSH1 0x20 DUP6 ADD SWAP1 DUP2 MSTORE DUP7 DUP6 ADD PUSH1 0x24 CALLDATALOAD DUP2 MSTORE PUSH1 0x60 DUP7 ADD SWAP2 DUP6 DUP4 MSTORE PUSH1 0x80 DUP8 ADD SWAP4 PUSH1 0x64 CALLDATALOAD DUP6 MSTORE PUSH1 0xA0 DUP9 ADD SWAP7 DUP8 MSTORE DUP1 PUSH1 0xC0 DUP10 ADD SWAP11 PUSH1 0x1 DUP13 MSTORE PUSH1 0x1 SLOAD DUP14 MSTORE DUP13 PUSH1 0x20 MSTORE DUP13 KECCAK256 SWAP9 MLOAD AND SWAP1 PUSH12 0xFFFFFFFFFFFFFFFFFFFFFFFF PUSH1 0xA0 SHL SWAP2 DUP3 DUP11 SLOAD AND OR DUP10 SSTORE PUSH1 0x1 DUP10 ADD SWAP3 MLOAD AND SWAP1 DUP3 SLOAD AND OR SWAP1 SSTORE MLOAD PUSH1 0x2 DUP7 ADD SSTORE MLOAD PUSH1 0x3 DUP6 ADD SSTORE MLOAD SWAP1 DUP4 ADD SSTORE MLOAD PUSH1 0x5 DUP3 ADD SSTORE ADD SWAP1 MLOAD ISZERO ISZERO PUSH1 0xFF DUP1 NOT DUP4 SLOAD AND SWAP2 AND OR SWAP1 SSTORE PUSH2 0x318 PUSH1 0x1 SLOAD PUSH2 0x3CA JUMP JUMPDEST PUSH1 0x1 SSTORE DUP1 RETURN JUMPDEST PUSH4 0x4E487B71 PUSH1 0xE0 SHL DUP8 MSTORE PUSH1 0x41 DUP4 MSTORE PUSH1 0x24 DUP8 REVERT JUMPDEST DUP4 DUP1 REVERT JUMPDEST DUP4 CALLVALUE PUSH2 0x35C JUMPI PUSH1 0x20 PUSH2 0x346 CALLDATASIZE PUSH2 0x37B JUMP JUMPDEST SWAP1 DUP1 SWAP3 SWAP2 DUP2 ADD SUB SLT PUSH2 0x1BB JUMPI PUSH2 0x1B8 SWAP1 CALLDATALOAD PUSH2 0x3EF JUMP JUMPDEST DUP1 REVERT JUMPDEST DUP5 SWAP1 CALLVALUE PUSH2 0x1BB JUMPI DUP2 PUSH1 0x3 NOT CALLDATASIZE ADD SLT PUSH2 0x1BB JUMPI PUSH1 0x20 SWAP1 PUSH1 0x1 SLOAD DUP2 MSTORE RETURN JUMPDEST SWAP1 PUSH1 0x20 PUSH1 0x3 NOT DUP4 ADD SLT PUSH2 0x3C5 JUMPI PUSH1 0x4 CALLDATALOAD PUSH8 0xFFFFFFFFFFFFFFFF SWAP3 DUP4 DUP3 GT PUSH2 0x3C5 JUMPI DUP1 PUSH1 0x23 DUP4 ADD SLT ISZERO PUSH2 0x3C5 JUMPI DUP2 PUSH1 0x4 ADD CALLDATALOAD SWAP4 DUP5 GT PUSH2 0x3C5 JUMPI PUSH1 0x24 DUP5 DUP4 ADD ADD GT PUSH2 0x3C5 JUMPI PUSH1 0x24 ADD SWAP2 SWAP1 JUMP JUMPDEST PUSH1 0x0 DUP1 REVERT JUMPDEST PUSH1 0x0 NOT DUP2 EQ PUSH2 0x3D9 JUMPI PUSH1 0x1 ADD SWAP1 JUMP JUMPDEST PUSH4 0x4E487B71 PUSH1 0xE0 SHL PUSH1 0x0 MSTORE PUSH1 0x11 PUSH1 0x4 MSTORE PUSH1 0x24 PUSH1 0x0 REVERT JUMPDEST SWAP1 PUSH1 0x0 SWAP2 DUP1 DUP4 MSTORE DUP3 PUSH1 0x20 MSTORE PUSH1 0x40 SWAP1 DUP2 DUP5 KECCAK256 PUSH1 0xFF PUSH1 0x6 DUP3 ADD SLOAD AND ISZERO PUSH2 0x4E1 JUMPI PUSH1 0x2 DUP2 ADD SLOAD CALLVALUE SUB PUSH2 0x4A5 JUMPI DUP5 DUP1 DUP1 DUP1 PUSH1 0x1 DUP1 PUSH1 0xA0 SHL SUB DUP6 SLOAD AND DUP2 SWAP1 CALLVALUE ISZERO PUSH2 0x49B JUMPI JUMPDEST CALLVALUE SWAP2 CALL ISZERO PUSH2 0x491 JUMPI PUSH1 0x5 ADD DUP1 SLOAD SWAP1 PUSH3 0x278D00 DUP3 ADD DUP1 SWAP3 GT PUSH2 0x47D JUMPI PUSH32 0xA0D112ED080C1B1A94B838AD981A23746BE2A4670FD4BF157224E72CDD5DFDDE SWAP5 SWAP6 POP SSTORE DUP2 MLOAD SWAP1 DUP2 MSTORE CALLVALUE PUSH1 0x20 DUP3 ADD MSTORE LOG1 JUMP JUMPDEST PUSH4 0x4E487B71 PUSH1 0xE0 SHL DUP7 MSTORE PUSH1 0x11 PUSH1 0x4 MSTORE PUSH1 0x24 DUP7 REVERT JUMPDEST DUP3 MLOAD RETURNDATASIZE DUP7 DUP3 RETURNDATACOPY RETURNDATASIZE SWAP1 REVERT JUMPDEST PUSH2 0x8FC SWAP2 POP PUSH2 0x42F JUMP JUMPDEST DUP3 MLOAD PUSH3 0x461BCD PUSH1 0xE5 SHL DUP2 MSTORE PUSH1 0x20 PUSH1 0x4 DUP3 ADD MSTORE PUSH1 0x15 PUSH1 0x24 DUP3 ADD MSTORE PUSH21 0x125B98DBDC9C9958DD081C995B9D08185B5BDD5B9D PUSH1 0x5A SHL PUSH1 0x44 DUP3 ADD MSTORE PUSH1 0x64 SWAP1 REVERT JUMPDEST DUP3 MLOAD PUSH3 0x461BCD PUSH1 0xE5 SHL DUP2 MSTORE PUSH1 0x20 PUSH1 0x4 DUP3 ADD MSTORE PUSH1 0xF PUSH1 0x24 DUP3 ADD MSTORE PUSH15 0x52656E74616C20696E616374697665 PUSH1 0x88 SHL PUSH1 0x44 DUP3 ADD MSTORE PUSH1 0x64 SWAP1 REVERT JUMPDEST PUSH1 0x0 SWAP1 PUSH1 0x1 DUP1 SLOAD SWAP3 JUMPDEST DUP4 DUP2 LT PUSH2 0x567 JUMPI POP POP PUSH1 0x40 MLOAD PUSH1 0x0 SWAP3 POP PUSH1 0x20 DUP2 ADD PUSH8 0xFFFFFFFFFFFFFFFF DUP2 GT DUP3 DUP3 LT OR PUSH2 0x551 JUMPI PUSH1 0x40 MSTORE PUSH1 0x0 DUP2 MSTORE SWAP1 JUMP JUMPDEST PUSH4 0x4E487B71 PUSH1 0xE0 SHL PUSH1 0x0 MSTORE PUSH1 0x41 PUSH1 0x4 MSTORE PUSH1 0x24 PUSH1 0x0 REVERT JUMPDEST DUP1 PUSH1 0x0 MSTORE PUSH1 0x20 PUSH1 0x0 DUP2 MSTORE PUSH1 0x40 SWAP1 DUP2 PUSH1 0x0 KECCAK256 PUSH1 0xFF PUSH1 0x6 DUP3 ADD SLOAD AND SWAP1 DUP2 PUSH2 0x5C5 JUMPI JUMPDEST POP PUSH2 0x59C JUMPI POP POP PUSH2 0x597 SWAP1 PUSH2 0x3CA JUMP JUMPDEST PUSH2 0x520 JUMP JUMPDEST SWAP1 DUP1 SWAP3 SWAP6 POP MLOAD SWAP5 DUP2 DUP7 ADD MSTORE DUP5 MSTORE DUP1 DUP5 ADD SWAP1 DUP5 DUP3 LT PUSH8 0xFFFFFFFFFFFFFFFF DUP4 GT OR PUSH2 0x551 JUMPI MSTORE SWAP2 SWAP1 JUMP JUMPDEST PUSH1 0x5 SWAP2 POP ADD SLOAD PUSH3 0x278D00 DUP2 ADD DUP1 SWAP2 GT PUSH2 0x3D9 JUMPI TIMESTAMP LT ISZERO CODESIZE PUSH2 0x587 JUMP INVALID LOG2 PUSH5 0x6970667358 0x22 SLT KECCAK256 0xCB MSIZE PUSH27 0x5C12BC0562E202A9C07806AF10711BEC8D6203E4DB653A53E16B80 0xCF 0x4B PUSH5 0x736F6C6343 STOP ADDMOD SGT STOP CALLER "},"methodIdentifiers":{"checkUpkeep(bytes)":"6e04ff0d","listProperty(address,uint256,uint256,uint256)":"4fcb22fc","nextPropertyId()":"39500f34","payRent(uint256)":"d9e8843f","performUpkeep(bytes)":"4585e33b","properties(uint256)":"f7b10808","terminateRental(uint256)":"f9217419"}}}}}