{
  "_format": "hh-sol-artifact-1",
  "contractName": "RentalEscrow",
  "sourceName": "contracts/Escrow.sol",
  "abi": [
    {
      "anonymous": false,
      "inputs": [
        {
          "indexed": false,
          "internalType": "uint256",
          "name": "propertyId",
          "type": "uint256"
        }
      ],
      "name": "PropertyTerminated",
      "type": "event"
    },
    {
      "anonymous": false,
      "inputs": [
        {
          "indexed": false,
          "internalType": "uint256",
          "name": "propertyId",
          "type": "uint256"
        },
        {
          "indexed": false,
          "internalType": "uint256",
          "name": "amount",
          "type": "uint256"
        }
      ],
      "name": "RentPaid",
      "type": "event"
    },
    {
      "inputs": [
        {
          "internalType": "bytes",
          "name": "",
          "type": "bytes"
        }
      ],
      "name": "checkUpkeep",
      "outputs": [
        {
          "internalType": "bool",
          "name": "upkeepNeeded",
          "type": "bool"
        },
        {
          "internalType": "bytes",
          "name": "",
          "type": "bytes"
        }
      ],
      "stateMutability": "view",
      "type": "function"
    },
    {
      "inputs": [
        {
          "internalType": "address payable",
          "name": "_tenant",
          "type": "address"
        },
        {
          "internalType": "uint256",
          "name": "_rentAmount",
          "type": "uint256"
        },
        {
          "internalType": "uint256",
          "name": "_startDate",
          "type": "uint256"
        },
        {
          "internalType": "uint256",
          "name": "_endDate",
          "type": "uint256"
        }
      ],
      "name": "listProperty",
      "outputs": [],
      "stateMutability": "nonpayable",
      "type": "function"
    },
    {
      "inputs": [],
      "name": "nextPropertyId",
      "outputs": [
        {
          "internalType": "uint256",
          "name": "",
          "type": "uint256"
        }
      ],
      "stateMutability": "view",
      "type": "function"
    },
    {
      "inputs": [
        {
          "internalType": "uint256",
          "name": "_propertyId",
          "type": "uint256"
        }
      ],
      "name": "payRent",
      "outputs": [],
      "stateMutability": "payable",
      "type": "function"
    },
    {
      "inputs": [
        {
          "internalType": "bytes",
          "name": "performData",
          "type": "bytes"
        }
      ],
      "name": "performUpkeep",
      "outputs": [],
      "stateMutability": "nonpayable",
      "type": "function"
    },
    {
      "inputs": [
        {
          "internalType": "uint256",
          "name": "",
          "type": "uint256"
        }
      ],
      "name": "properties",
      "outputs": [
        {
          "internalType": "address payable",
          "name": "landlord",
          "type": "address"
        },
        {
          "internalType": "address payable",
          "name": "tenant",
          "type": "address"
        },
        {
          "internalType": "uint256",
          "name": "rentAmount",
          "type": "uint256"
        },
        {
          "internalType": "uint256",
          "name": "startDate",
          "type": "uint256"
        },
        {
          "internalType": "uint256",
          "name": "endDate",
          "type": "uint256"
        },
        {
          "internalType": "uint256",
          "name": "lastPaymentDate",
          "type": "uint256"
        },
        {
          "internalType": "bool",
          "name": "isActive",
          "type": "bool"
        }
      ],
      "stateMutability": "view",
      "type": "function"
    },
    {
      "inputs": [
        {
          "internalType": "uint256",
          "name": "_propertyId",
          "type": "uint256"
        }
      ],
      "name": "terminateRental",
      "outputs": [],
      "stateMutability": "nonpayable",
      "type": "function"
    }
  ],
  "bytecode": "0x6080806040523461001657610617908161001c8239f35b600080fdfe608060408181526004908136101561001657600080fd5b600092833560e01c90816339500f341461035f575080634585e33b146103355780634fcb22fc1461022b5780636e04ff0d146101bf578063d9e8843f146101a0578063f7b108081461012a5763f92174191461007157600080fd5b3461012657602036600319011261012657813591828452836020528184209060018060a01b03808354163314908115610116575b50156100e45750600601805460ff19169055519081527ff74cb909c29f6a49bc57332a246f98b2d1c71dd76e9e4cf99b5606c75e0e2ed690602090a180f35b606490602084519162461bcd60e51b8352820152600c60248201526b155b985d5d1a1bdc9a5e995960a21b6044820152fd5b90506001830154163314386100a5565b8280fd5b509034610126576020366003190112610126578160e09382358152806020522060018060a01b039283825416936001830154169260028301546003840154918401549260ff600660058701549601541695815197885260208801528601526060850152608084015260a0830152151560c0820152f35b505060203660031901126101bb576101b890356103ef565b80f35b5080fd5b8382346101bb576101cf3661037b565b50506101d9610517565b918051938492151583526020828185015284518093850152815b83811061021457505060608094508284010152601f80199101168101030190f35b8086018201518782016060015286945081016101f3565b508290346101bb5760803660031901126101bb576001600160a01b0383358181169490859003610331576044359083519260e084019684881067ffffffffffffffff89111761031e578596976006965233855260208501908152868501602435815260608601918583526080870193606435855260a088019687528060c089019a60018c526001548d528c6020528c20985116906bffffffffffffffffffffffff60a01b91828a541617895560018901925116908254161790555160028601555160038501555190830155516005820155019051151560ff801983541691161790556103186001546103ca565b60015580f35b634e487b7160e01b875260418352602487fd5b8380fd5b833461035c5760206103463661037b565b90809291810103126101bb576101b890356103ef565b80fd5b8490346101bb57816003193601126101bb576020906001548152f35b9060206003198301126103c55760043567ffffffffffffffff928382116103c557806023830112156103c55781600401359384116103c557602484830101116103c5576024019190565b600080fd5b60001981146103d95760010190565b634e487b7160e01b600052601160045260246000fd5b906000918083528260205260409081842060ff600682015416156104e157600281015434036104a5578480808060018060a01b038554168190341561049b575b3491f1156104915760050180549062278d00820180921161047d577fa0d112ed080c1b1a94b838ad981a23746be2a4670fd4bf157224e72cdd5dfdde949550558151908152346020820152a1565b634e487b7160e01b86526011600452602486fd5b82513d86823e3d90fd5b6108fc915061042f565b825162461bcd60e51b8152602060048201526015602482015274125b98dbdc9c9958dd081c995b9d08185b5bdd5b9d605a1b6044820152606490fd5b825162461bcd60e51b815260206004820152600f60248201526e52656e74616c20696e61637469766560881b6044820152606490fd5b60009060018054925b838110610567575050604051600092506020810167ffffffffffffffff811182821017610551576040526000815290565b634e487b7160e01b600052604160045260246000fd5b806000526020600081526040908160002060ff60068201541690816105c5575b5061059c575050610597906103ca565b610520565b908092955051948186015284528084019084821067ffffffffffffffff83111761055157529190565b60059150015462278d0081018091116103d9574210153861058756fea2646970667358221220cb597a5c12bc0562e202a9c07806af10711bec8d6203e4db653a53e16b80cf4b64736f6c63430008130033",
  "linkReferences": {},
  "deployedLinkReferences": {}
}